:0A0A6000C0F9A4B0999282F88090CA
:040A6A000213000172
:0C0A2E0074092508F8E6F5A07F647E003E
:100A3A00E4FDFCC3ED9FEE6480F8EC6480985015E9
:100A4A00E4FBFA0BBB00010ABA04F8BBFBF50DBDC7
:050A5A0000010C80DE2C
:010A5F002274
:10098200E4F50878097C00FD7BFF7A0A7960FE7F36
:100992000A1208D0E4F590F5A0D2A9D2AF5389F09B
:1009A200438901F58CF58AD28C75A881D288E50835
:1009B200C3940A5015E5144513600F120A2E050858
:1009C200E508B40AE9E4F50880E4E508C3940040C8
:1009D200DDE514451370D7120A2E1508E508B4FF99
:0609E200E975080980E43C
:030003000209E807
:1009E800C0E0C0D075D000C000C002C003C004C0C1
:1009F80005C006C0076390FF7F2C7E01120A3A6388
:100A080090FFE514451370047F0180027F00751381
:100A1800008F14D007D006D005D004D003D002D060
:060A280000D0D0D0E03246
:030000000208F6FD
:0C08F600787FE4F6D8FD75811402093DFE
:10080000E709F608DFFA8046E709F208DFFA803EDA
:1008100088828C83E709F0A3DFFA8032E309F608C7
:10082000DFFA8078E309F208DFFA807088828C832F
:10083000E309F0A3DFFA806489828A83E0A3F608E3
:10084000DFFA805889828A83E0A3F208DFFA804CBD
:1008500080D280FA80C680D4806980F28033801094
:1008600080A680EA809A80A880DA80E280CA8033FD
:1008700089828A83ECFAE493A3C8C582C8CCC58375
:10088000CCF0A3C8C582C8CCC583CCDFE9DEE78045
:100890000D89828A83E493A3F608DFF9ECFAA9F0C4
:1008A000EDFB2289828A83ECFAE0A3C8C582C8CC1A
:1008B000C583CCF0A3C8C582C8CCC583CCDFEADE33
:1008C000E880DB89828A83E493A3F208DFF980CC95
:1008D00088F0EF60010E4E60C388F0ED2402B4048E
:1008E0000050B9F582EB2402B4040050AF23234535
:0608F00082239008507302
:10090200020982E493A3F8E493A34003F68001F280
:1009120008DFF48029E493A3F85407240CC8C333F6
:10092200C4540F4420C8834004F456800146F6DFC5
:10093200E4800B0102040810204080900A6AE47EE1
:10094200019360BCA3FF543F30E509541FFEE493BA
:10095200A360010ECF54C025E060A840B8E493A381
:10096200FAE493A3F8E493A3C8C582C8CAC583CAAC
:10097200F0A3C8C582C8CAC583CADFE9DEE780BE64
:010A6E000087
:00000001FF
